:100000000BC01CC01BC01AC019C018C017C016C036
:1000100015C014C013C012C011241FBECFEDCDBF38
:1000200010E0A0E6B0E0E0E4F1E003C0C89531964E
:100030000D92A038B107D1F722D080C0E1CF482F70
:10004000862F972F6CE271E050D020E030E080E105
:1000500093E84A5050E82617370784F480BF9FBDC5
:100060004BBDAFE5EAEEF0E0A150E040F040E1F733
:1000700000C000005FBD2F5F3F4FEDCF0895CF93CD
:10008000DF93CDB7DD27CF51CDBF8FE1E0E6F0E0C4
:10009000AC2FBD2F119601900D928A95E1F78FEF4D
:1000A00087BBBC9888BBEC2EFD2E20E2E20EF11C33
:1000B0000C2F1D2F0F5F1F4F0E151F05C9F3E02FCB
:1000C000F12F81910E2F1F2F8B3751F4FFE52AEE70
:1000D00080E0F15020408040E1F700C00000ECCF0C
:1000E0006CE271E090E0ABDFE7CF97FB072E16F4F0
:1000F000009406D077FD08D00BD007FC05D03EF465
:10010000909581959F4F0895709561957F4F0895C3
:10011000AA1BBB1B51E107C0AA1FBB1FA617B7072D
:1001200010F0A61BB70B881F991F5A95A9F7809549
:100130009095682F792F8A2F9B2F0895F894FFCFE1
:10014000EFEFD5EFB3BE7BEFEFD5EF9FB37BEFEFD4
:100150007F8EB3BED57B86868EB39FB3B37B7B0089
:00000001FF
